:020000040800F2
:10000000D81600204D020008B1200008E11B0008AE
:1000100000000000000000000000000000000000E0
:10002000000000000000000000000000590100086E
:100030000000000000000000ED0100083902000887
:100040007D0200087D0200087D0200087D02000894
:100050007D0200087D0200087D0200087D02000884
:100060007D0200087D0200087D0200087D02000874
:100070007D0200087D0200087D0200087D02000864
:100080007D02000800000000000000007D02000862
:10009000000000007D0200087D0200087D020008CB
:1000A000000000007D0200087D0200082D350008D8
:1000B0007D020008000000007D0200087D020008AB
:1000C0000848854600F080FAC046C04605F0DCFAD4
:1000D0000021034805F030FB05F0EAFAFEE70000D6
:1000E000A4750008D816002080F309887047EFF344
:1000F00009807047684680F3098806480078C00781
:1001000003D1032080F314887047022080F3148801
:100110007047000090750008064B9C46EFF305837E
:100120001B0605D1EFF31483DB0701D000DF704716
:1001300060470000495B0008064B9C46EFF30583CF
:100140001B0605D1EFF31483DB0701D000DF7047F6
:1001500060470000355D0008EFF309808169891E62
:10016000097800292BD1A6461FC8A4467446E0474B
:10017000EFF3098307C31A4B06CB91421CD0083B0F
:1001800000290DD0EFF3098020388862F0C0444682
:100190004D4656465F46F0C00CB406F0A1F80CBCC4
:1001A0001A60906A1030F0C8A046A946B246BB4615
:1001B00080F309882038F0C80220C043004710B5FA
:1001C000084A1268914209D8074C89006458A6462B
:1001D0001FC8A446F047EFF309840FC410BD000008
:1001E00048000020EC050008EC05000805F058FF69
:1001F000104B06CB91421AD0083BEFF30980203810
:100200008862F0C044464D4656465F46F0C00CB486
:1002100006F066F80CBC1A60906A1030F0C8A04670
:10022000A946B246BB4680F309882038F0C80220B0
:10023000C04300474800002006F004F9D8E700005A
:1002400005F0E4FA06F0FEF8D2E700000C4880F36F
:1002500008880C480168090E0B4A914205D10B48E9
:100260000B4901600B480C4901600C4880470C4861
:100270000047FEE7FEE7FEE7FEE7FEE7FEE70000D9
:10028000D8160020040000001F00000018100240D3
:10029000010000000000014000000000B12800083B
:1002A000C100000830B50B46014600202022012481
:1002B00009E00D46D5409D4205D31D469540491B9A
:1002C0002546954040191546521E002DF1DC30BDE3
:1002D00070B500242546002801DA01244042002997
:1002E00001DA01254942FFF7DDFFAC4200D0404270
:1002F000002C00D0494270BD10B5202A04DB08460E
:10030000203AD040002110BD0B46D340D0402024DD
:10031000A21A91400843194610BDD2B201E0027002
:10032000401C491EFBD270470022F6E710B5134669
:100330000A4604461946FFF7F0FF204610BDF8B5FF
:1003400002464A40D40F42004B0052085B089A42D2
:1003500002D20246084611464A0023D0C30D4A0085
:10036000DDB2120EAD1A202D35DA49020126490AF6
:10037000F6058A19002C00D0524220214F1B11464D
:10038000B9402A411018C20D9A4221D0002C17D032
:10039000012D08DCDA05801AD20F8019D207DBB2F2
:1003A00000F0D9F8F8BDDA05801A012340001B06D9
:1003B000C01880185A428018CA0F1043490007E03D
:1003C0004908C2071143DA05801A801940088018CD
:1003D00000F0B9F8F8BD61000122511A001BF7E7DF
:1003E0000122D2075140AAE70122D2075040A6E7D6
:1003F000024670B54A40D30FDB0740002DD04A00BB
:100400002AD0010E140E000212020919400A520AE3
:100410008418E50104465443000A120A2E0450438E
:10042000A4194219200CC543AA18120C0125AD03CA
:10043000521C521912047F39240400D0521C10435C
:1004400001D44000491EC2B20C06C0092018401C4D
:100450004008802A02D003E0002070BD4008400020
:10046000002900DA0020184370BD70B502464A40EA
:10047000D50F40004A00ED0740085208002814D06C
:10048000002A12D0C40DD30D41020120C005520232
:10049000490A520AE41A091812187D34914201D30C
:1004A000641C00E04900002C01DA002070BD00232C
:1004B000914201D3891A0343400849000028F7D12B
:1004C00000290AD0914202D10121C90705E09142D9
:1004D00001D2012101E00121C943E005C018401902
:1004E00000F031F870BD420005D04200120E5242B9
:1004F0008A4201DB00207047C90508187047C217FF
:10050000C10F504010B54018CA079623002100F0D3
:1005100022F810BDC20F410040020123400ADB0552
:10052000D207090EC0187F2901DA002070479629EA
:1005300003DC9623591AC84001E096398840002A06
:10054000F4D040427047002904DA401C490001D130
:1005500040084000704770B40024050C05D11024F9
:10056000000402D1002921D01124050E01D100027E
:100570000834050F01D10001241D850F01D1800031
:10058000A41C002801DB4000641C002908D02025A1
:100590002E1B0D46F540A14000D001212943084300
:1005A00001061B1B000ADB1D02D5002070BC704732
:1005B000DB05181880180029F8DA401C4900F5D12D
:1005C00070BC400840007047064C0125064E05E00F
:1005D000E36807CC2B430C3C98471034B442F7D364
:1005E000FFF772FDE07500080076000800000000CB
:1005F00010B526480021C46C0122230002F0B6FF8A
:100600000A0A060D141B222930373E0A036D012BFE
:1006100001D0026510BD016510BD436D012B01D0F5
:10062000426510BD416510BD836D012B01D082650F
:1006300010BD816510BDC36D012B01D0C26510BD19
:10064000C16510BD036E012B01D0026610BD0166AD
:1006500010BD436E012B01D0426610BD416610BD36
:10066000836E012B01D0826610BD816610BDC36E02
:10067000012B01D0C26610BDC16610BD036F012BF6
:1006800001D0026710BD016710BD00000007002007
:10069000F0B5224A224C527D2306002A0BD0214A73
:1006A0005A639A63DA632260D643551C771CA942C9
:1006B00007DB11460BE0002058639863D863206085
:1006C000F0BDB14201DC394607E0002903DD511AD3
:1006D00099635A630AE0002906DA9A63002900DA6E
:1006E0004942511A596301E05A639A63A84201DBF7
:1006F000104605E0B04201DC384606E0002802DD85
:10070000101AD86307E0002804DA4042101A20606B
:10071000DA63F0BDDA632260F0BD000060070020FC
:1007200040000040E7030000F8B51E4E0025306E83
:100730002C46012807D040211B4800F0B3F90028BF
:1007400001D11A4D01240927F06DFF06012807D0B9
:100750002021384600F0A6F9002801D1641C643D30
:10076000706D012807D08021384600F09BF90028E1
:1007700001D1641C6435306D012809D0FF2101319D
:10078000384600F08FF9002802D1641CFF352D3562
:10079000002C04D021462846FFF79AFDF8BD002022
:1007A000C043F8BD0007002000040048D4FEFFFF4E
:1007B00010B50248006804F0E5FF10BD04000020F9
:1007C00010B5054B0022DA61044A13690124234362
:1007D0001361018010BD0000880800200020024045
:1007E00010B50B4A0020D168CB060A4904D5C86968
:1007F00002231843C8611020D3685B0705D5CB6975
:1008000001242343CB6104210843D06010BD0000C4
:10081000002002408808002070B5054600F04EF91F
:100820000646104C0AE0681C08D0002D04D000F0E9
:1008300045F9801BA84201D9032070BDE068C007BC
:10084000F1D1E068800601D52020E060E068C006B4
:1008500002D4E068400703D5FFF7C2FF012070BD56
:10086000002070BD0020024070B5002401462031F8
:100870004A78022A03D004218163012416E0026829
:1008800013680E25AB431360026813685B085B00B6
:1008900013600122056C1346AB40C56B6B604A7058
:1008A00000220A70416B002900D08847204670BDA5
:1008B0000348016980221143016100207047000054
:1008C00000200240F0B51FB407461A480024017EFC
:1008D00015461E46012907D0012101761648FFF76B
:1008E0009BFF002803D020E0022005B0F0BD012FBF
:1008F00002D0022F00D00427220128463146FFF7FC
:10090000FBFC81B2019862001018FFF759FF0A48FA
:10091000FFF782FF09490A69520852000A6100285C
:1009200003D1641CE4B2BC42E6D3024900220A7639
:10093000DBE700008808002050C3000000200240D0
:10094000064900200A69120607D5054A4A60054A89
:100950004A600969090600D501207047002002405D
:1009600023016745AB89EFCDF8B5002389E0012469
:100970009C402A46A44622407ED04C68022C01D0DE
:10098000122C0CD1DC08A40027183C6A5D07ED0E80
:100990000F26AE40B4430E69AE4026433E62056862
:1009A0005E000324B4400F79A543BF07BF0FB740D3
:1009B0002F4307604D68012D05D0022D03D0112D66
:1009C00001D0122D0ED18568CF68A543B7402F43C3
:1009D000876047686546AF430D79ED06ED0F9D4092
:1009E0003D434560C568A5438C68B4402C43C46052
:1009F0004C68E40044D5264CA56901263543A56121
:100A0000A4699D0834400094224CAD002F19BC68A5
:100A10009D072E0F0F25B540AC430925ED06A842D2
:100A200001D100250AE01C4DA84201D1012505E0B5
:100A30001A4DA84201D1022500E00525B540254305
:100A4000BD60174C25684E689543F60300D51543E5
:100A5000256065684E689543B60300D5154365600B
:100A6000A5684E689543F60200D51543A560E56874
:100A70004E689543B60200E002E000D51543E560FC
:100A80005B1C0A681546DA4000D070E7F8BD00002C
:100A90000010024000000140000400480008004827
:100AA000000401400069084000D001207047002A7E
:100AB00001D0816170478162704700000148006881
:100AC000704700002C00002070B502464032537879
:100AD000202B1CD11378012B19D00123137024244F
:100AE0005470046825689D432560046825681E03CA
:100AF000B5432560046825680D43256000680168DA
:100B000019430160202050700020107070BD022039
:100B100070BD70B5024640325378202B1BD113783C
:100B2000012B18D0012414702423537003681D680E
:100B3000A5431D6005682B680F263602B3430902E2
:100B4000194329600068016821430160202050702A
:100B50000020107070BD022070BD000070B5040050
:100B600006D02546403568780026002802D005E0EA
:100B7000012070BD2E70204600F064F924206870BA
:100B8000206801684908490001600F216068090672
:100B900088432168086121688A680120C003824374
:100BA0008A60E1680129A16808D0212292021143DC
:100BB00022689160E168022902D005E00143F7E76D
:100BC00001212268C902516021684A680F4B1A430B
:100BD0004A602168CA688243CA6061692069084323
:100BE000A169090208432168C860216AE0690843D5
:100BF0002168086020680168012211430160666471
:100C0000202068702663AE70002070BD0080000256
:100C1000FFB50446002083B02546403501906A7830
:100C2000202A7FD122689269D24312047AD52A7889
:100C3000012A77D001222A7024226A7060648F050D
:100C4000BF0DE06801280BD00520C0020121381833
:100C50008902884321684860FFF730FF064612E0AA
:100C60003148F3E70698401C0DD00698002805D0BF
:100C7000FFF724FF811B0698814204D92020687069
:100C80000020287043E020688169C943890606D5A1
:100C90008069C043C00602D56878A028E2D12068E8
:100CA0008069069BC043C00600960ED50022202115
:100CB000204600F0F3FF002829D121682020C861D8
:100CC00068700020287007B0F0BD00222021204667
:100CD00000F0E4FF00281AD120681021C1612068CB
:100CE0002021C1610198411C01910599884214D1CC
:100CF000206841680122920311434160009600225E
:100D000020212046069B00F0C9FF002802D00320C6
:100D1000D9E707E021682020C86101990598814240
:100D20008FD3ABE70220CEE700200002FFB50546D7
:100D300004464035687881B020287ED12878012883
:100D40007BD001202870FFF7B9FE074601220090F2
:100D50001923D103204600F0A1FF00283FD1212014
:100D600068701020A870002666640398606204987A
:100D700060856663618D01204003FF2903D9FF224E
:100D80002285009034E0618D2185009036E0204678
:100D9000029900F071FF36E000F0CBFF002803D08D
:100DA000606C042847D01AE0606A411C61620178D7
:100DB00020688162608D401E6085208D401E000489
:100DC000000C20851FD1608D00281CD000970022C8
:100DD000802120460A9B00F061FF002802D00320FA
:100DE00005B0F0BD608DFF2805D9FF222285009651
:100DF00001231B06CBE7608D20850096208D012303
:100E0000C2B25B06C3E7608D0A9900283A462046C5
:100E1000C2D100F067FF0028C2D121682020C8613C
:100E200021684A68064B1A404A606870AE702E709E
:100E30000020D5E701E00120D2E70220D0E7000042
:100E400000E800FE10B586B0044614216846FFF79E
:100E50006BFA1149206888421CD1104C616901204D
:100E60008005014361616169014005911221019191
:100E700003200121009002910491039069460848E3
:100E8000FFF772FDE169012040050143E161E1697D
:100E90000140059106B010BD005400400010024012
:100EA0000014004810B50648016810221143016083
:100EB000002000F007F800F017F8002010BD000037
:100EC0000020024010B5044600F060F97D21C90001
:100ED000FFF7E8F900F0A0FB00222146501E00F0C9
:100EE00021F8002010BD000008B5084881690122E2
:100EF00011438161816911400091C26901040A4373
:100F0000C261C0690840009008BD000000100240A6
:100F1000C106C90E012088400149086070470000E1
:100F200000E100E010B501F0C5F810BDF8B50446C9
:100F300000683E4DC00352D5E8690026C00007D4C2
:100F4000E96928040143E961E9690140012600914A
:100F500037480168C90510D4016882151143016042
:100F6000FFF7ACFD074604E0FFF7A8FDC01B6428AF
:100F700024D82F480068C005F6D5286A03273F0209
:100F8000384020D06168394081421CD0286A2A6AE2
:100F9000B843012109040A432A622A6A8A432A6261
:100FA0002862C0070FD0FFF789FD009008E0FFF727
:100FB00085FD0099411A1F48814201D90320F8BDDF
:100FC000286A8007F3D5286A6168B8430843286215
:100FD000002E04D0E969012000078143E9612078EF
:100FE000C00705D0286BA1688008800008432863EB
:100FF0002078800605D5286B10218843E1680843D6
:1010000028632068800305D5286B802188436169A7
:10101000084328632088400505D5286B4021884374
:101020002169084328630020F8BD00000010024039
:101030000070004088130000F8B505464E480E4683
:101040000068C007C00FB0420AD24B480168490887
:101050004900314301600068C007C00FB04270D141
:101060002878464C800705D56068F0218843A96838
:10107000084360602878C00753D06868012817D0FB
:10108000022818D0032819D021688907002958DAC6
:1010900061688908890001436160FFF70FFD696895
:1010A0000746012913D002291DD0032927D034E097
:1010B00021688903EAE721688901E7E7616BC903D1
:1010C000E4E7FFF7FBFCC11B2D48814223D8606891
:1010D0000007800F0128F4D123E0FFF7EFFCC11BCC
:1010E0002748814217D860680007800F0228F4D192
:1010F00017E0FFF7E3FCC11B214881420BD8606871
:101100000007800F0328F4D10BE0FFF7D7FCC11BC9
:101110001B48814201D90320F8BD60680007800F99
:10112000F3D115480168C907C90FB1420BD901684D
:1011300049084900314301600068C007C00FB04250
:1011400001D00120F8BD2878400706D56068072146
:1011500009028843E9680843606000F02DF861687F
:10116000084A0906090F515CC84007490860002079
:10117000FFF7A8FE0020F8BD00200240001002404A
:1011800088130000687500083000002001480068DE
:101190007047000030000020044805490068496895
:1011A000044A4905490F515CC8407047300000208F
:1011B000001002407875000830B516A30FCB89B037
:1011C0006C460FC417A30FCB0FC41A494A680C20F2
:1011D000144604401848042C05D0184B082C04D0A1
:1011E0000C2C00D1184609B030BD9402240F6D4676
:1011F0002C5DC96A04AD0907090FD203695C920F1F
:10120000022A02D0032A00D11846FFF74BF86043A8
:10121000E9E7000002030405060708090A0B0C0DA4
:101220000E0F10100102030405060708090A0B0C33
:101230000D0E0F100010024000127A00006CDC024C
:10124000FEB504460078F04EF04DC00748D06868FF
:101250000007800F01281FD068680007800F022850
:1012600004D16868C003800F022815D06168012985
:1012700019D001208004002901D0052917D0296840
:10128000B1432960296881432960606800281BD028
:10129000FFF714FC074613E02868800320D5606838
:1012A000002876D01CE0286830432860EDE72968E4
:1012B00001432960F7E7FFF701FCC01B642869D8E8
:1012C00028688003F7D50BE0FFF7F8FB074604E03A
:1012D000FFF7F4FBC01B6428F1D828688003F7D41B
:1012E000207880073ED568680007800F14D06868B2
:1012F0000007800F022804D16868C003800F01280E
:101300000AD0E068002828681DD001210843286021
:10131000FFF7D4FB07460BE0286880070BD5E06891
:10132000012836D107E0FFF7C9FBC01B0228C6D849
:1013300028688007F7D52868F82188432169C90003
:10134000084328600EE0400840002860FFF7B6FB25
:10135000074604E0FFF7B2FBC01B0228AFD828689D
:101360008007F7D42078000724D5E0690028686A50
:1013700011D0012108436862FFF7A0FB074604E093
:10138000FFF79CFBC01B022899D8686A8007F7D535
:1013900010E036E1D1E0400840006862FFF78EFBC4
:1013A000074604E0FFF78AFBC01B022887D8686A5B
:1013B0008007F7D4207804274007002861DA00204E
:1013C0000190E869C00008D4E969B8060143E96101
:1013D000E96901400120009101908D480168C9052B
:1013E00011D40168821511430160FFF767FB00907B
:1013F00005E0FFF763FB0099401A642897D88448FA
:101400000068C005F5D5A06801280AD0002801D0E1
:10141000052811D0286A400840002862286AB8438D
:1014200002E0286A012108432862A068002812D03F
:10143000FFF744FB00900AE0286A38432862F0E78F
:10144000FFF73CFB0099411A7248814275D8286A1F
:101450008007F5D50DE0FFF731FB009006E0FFF7C0
:101460002DFB0099411A6B48814266D8286A800793
:10147000F5D40198002804D0E969012000078143D0
:10148000E9612078C00635D5606901280CD0401D7F
:10149000686B24D038436863686B40084000686319
:1014A000FFF70CFB074622E0686B38436863686B04
:1014B000012108436863FFF701FB074604E0FFF7DB
:1014C000FDFAC01B022838D8686B8007F7D5686B17
:1014D000F8218843A169C900084368630AE0B8435A
:1014E0006863F4E7FFF7EAFAC01B022825D8686BA7
:1014F0008007F7D42078800637D568680007800F0A
:10150000032813D068680007800F022804D1686898
:10151000C003800F032809D0206A0028686B16D00A
:1015200030436863FFF7CAFA06460CE0686BC003F5
:101530001BD5206A012864D117E05BE0FFF7BEFAF3
:10154000801B022856D8686BC003F7D50DE0B04366
:101550006863FFF7B3FA064604E0FFF7AFFA801BB3
:10156000022847D8686BC003F7D4606A002846D0C9
:1015700069680907890F022943D001263606022827
:10158000286805D0B0432860FFF798FA044633E096
:10159000B0432860FFF792FA074604E0FFF78EFA9F
:1015A000C01B022826D828688001F7D4E86A216B7E
:1015B000000900010843E862A16AE06A084369681B
:1015C0007B22D20391430843686028683043286037
:1015D000FFF774FA044604E0FFF770FA001B0228D4
:1015E00008D828688001F7D509E0FFF767FA001BE3
:1015F000022801D90320FEBD28688001F5D400200F
:10160000FEBD0120FEBD00000000010000100240F0
:101610000070004088130000094910B5401E884240
:1016200001D9012010BD074C60610321081F00F0A3
:1016300041FD0020A06107202061002010BD0000B6
:10164000FFFFFF0000E000E070B502462032137F8C
:10165000012B1BD00123137702245477046865689B
:101660007026B5436560046865680E68354365603B
:101670000468A5688026B543A56000688468496849
:101680000C43846053770020107770BD022070BD3A
:101690000222014620314A77026813680120034381
:1016A000136048770020704710B586B004461421B7
:1016B0006846FEF739FE012120688907884214D167
:1016C0000B48426949130A4342614069084005904A
:1016D0000F200090002002210290039001910491BC
:1016E00009206946C006FFF73FF906B010BD0000AB
:1016F00000100240F8B5064604462036307F0D46FD
:1017000001280DD001203077022070770427002AAD
:1017100008D0042A16D0082A2AD00C2A4DD137E046
:101720000220F8BD206801F0EBF9206881690822E9
:101730001143816120688169B943816120688169B1
:101740002A6912E0206801F017FA206882690121F5
:10175000C9020A4382612068816901229202914391
:101760008161206881692A6912021143816124E044
:10177000206801F03BFA2068C26908210A43C2616F
:101780002068C169B943C1612068C1692A6912E052
:10179000206801F067FA2068C1690122D202114372
:1017A000C1612068C269012189028A43C26120683F
:1017B000C1692A6912021143C161012070770020BA
:1017C0003077F8BD70B5040005D025462035687F18
:1017D000002802D006E0012070BD002028772046B6
:1017E00000F00AF802206877211D206801F03AF91C
:1017F00001206877002070BD08B5006801218907C5
:10180000884207D10448C16901221143C161C069FE
:101810001040009008BD00000010024010B50446C2
:101820000068012201F060F90A482168814205D070
:101830000948814202D00948814204D1486C012202
:10184000D2031043486420680168012211430160FB
:10185000002010BD002C0140004401400048014020
:1018600070477047F8B503680446D86919680507DA
:101870002D0F07D1820605D58A0603D5204601F033
:101880001BFDF8BD9A68002D64D0D507ED0FFF262B
:1018900021360E402E435DD0C60706D0CE0504D5B6
:1018A00001261E62E36E3343E366870702230426A4
:1018B000002F06DAD70704D027683B62E76E37436C
:1018C000E766470706D5D20704D022681662E26EA3
:1018D0001A43E266020709D520220A402A4305D0AE
:1018E000236808221A62E36E1343E366E26E002A5D
:1018F000C7D0800604D5880602D5204601F0DCFC5E
:10190000E06E000703D42068806840061CD520469E
:1019100001F0B6FC20688168490611D58168402233
:1019200091438160606E00280AD01A494163606E5D
:10193000FEF79AFF0028A4D0606E416B8847F8BD7F
:101940002046FFF78EFFF8BD2046FFF78AFF0020F4
:10195000E066F8BDC5020DD552020BD50120000589
:101960001862202120466030417281722046FFF7C4
:1019700077FFF8BD020605D50A0603D5204601F01B
:1019800071FDF8BD4006FCD54806FAD5204601F0A9
:1019900086FCF8BD6D32000870B5040005D0254600
:1019A0006035687A002802D006E0012070BD002072
:1019B0002872204600F026F824206872206801680A
:1019C000490849000160204601F0B4FC0128EDD02F
:1019D000606A002802D0204601F0AEFB2068416812
:1019E0000922D20291434160206881682A229143F2
:1019F000816020680168012211430160204601F0E6
:101A000001FC70BD10B586B0044614216846FEF78F
:101A10008BFC15492068884224D114488269012131
:101A200089030A43826182690A4005924269090179
:101A30000A434261406908400590C020009002209E
:101A40000021019003200291049103906946084807
:101A5000FEF78AFF002211461B20FFF763FA1B20C6
:101A6000FFF756FA06B010BD0038014000100240E2
:101A700000040048F0B5034660339C7A202C44D122
:101A800000290BD0002A09D0012584682D03AC421F
:101A900006D10669002E03D1CE0701D00120F0BD8A
:101AA0001E7A012E31D001261E7241650146403159
:101AB0000A834A83FF27AC4204D10269002A12D16B
:101AC000134A0EE07F22002C08D001252D07AC42DE
:101AD0000AD10469002C04D03F2202E00469002CE2
:101AE00001D08A8300E08F830021C16622229A728E
:101AF000197201688A6832438A6000680168FF22AF
:101B00002132114301600020F0BD0220F0BD000031
:101B1000FF0100007047FFB5064604466036707A44
:101B200083B00D46202858D1002D0CD005980028F0
:101B300009D00120A1680003814207D12069002853
:101B400004D1E80702D0012007B0F0BD307A0128A7
:101B500043D0012030720020E06621207072FEF731
:101B6000ADFF019027464037059838820598788266
:101B700018E0788A401E7882069800900022802122
:101B80002046019B01F0A1FC002818D10120A1688A
:101B90000003814202D12069002812D021682878F0
:101BA00008856D1C788A0028E3D1069800900022F1
:101BB00040212046019B01F088FC002808D003202A
:101BC000C2E728882168C005C00D0885AD1CE9E77B
:101BD0002020707200203072B6E70220B4E7704710
:101BE000FEE701688A69D243920701D400228A6223
:101BF00000688169C943C90703D081690122114383
:101C000081617047F7B5044600680E468069C0439D
:101C1000C0062CD420272546403520688069C04363
:101C200080060FD5701CF8D0002E05D0FEF746FFB9
:101C30000299401AB042F0D96F700020A870287045
:101C40000320FEBD21681020C8612068C7612046BE
:101C5000FFF7C7FF20684168064A11404160042031
:101C600060646F700020A87028700120FEBD002005
:101C7000FEBD000000E800FE70B50568049C6868C1
:101C80008905890D1204044E114319433040214344
:101C90000143696070BD0000009800FCF8B51C4667
:101CA00017460E46054611E0601C0FD0002C05D0EB
:101CB000FEF704FF0699401AA04207D920204035BC
:101CC00068700020A87028700320F8BD286881691A
:101CD0003046884304D00020B842E5D00020F8BD4B
:101CE0000120F9E770B516460D4604461AE0324663
:101CF00029462046FFF786FF002801D0012070BD4D
:101D0000002D04D0FEF7DAFE801BA8420AD9616CD0
:101D1000202001436164403460700020A070207076
:101D2000032070BD20688069C0438006DFD4002096
:101D300070BD70B516460D4604461CE03246294675
:101D40002046FFF75FFF002801D0012070BD681C0E
:101D500011D0002D04D0FEF7B1FE801BA8420AD995
:101D6000616C202001436164403460700020A070E9
:101D70002070032070BD20688069C0438007DDD4D7
:101D8000002070BD10B50021054803F0D5FC0549C1
:101D90000028086001D0002010BD0020C04310BD05
:101DA000AC6D00080000002010B50021054803F0CC
:101DB000C3FC05490028086001D0002010BD0020A8
:101DC000C04310BDEC6D00081000002010B50021CC
:101DD000054803F0B1FC05490028086001D0002047
:101DE00010BD0020C04310BDBC6D000804000020E1
:101DF00010B50021054803F09FFC05490028086044
:101E000001D0002010BD0020C04310BDCC6D0008E3
:101E10000800002010B50021054803F08DFC05499D
:101E20000028086001D0002010BD0020C04310BD74
:101E3000DC6D00080C00002070B50D4E86B000224D
:101E400001213046FEF733FE01250024009502945F
:101E50006946304601950394FEF786FD80206A4668
:101E600031C269463046FEF77FFD06B070BD000006
:101E70000004004830B585B0702000240090019423
:101E8000694602941448FEF76FFDFF2001300925D2
:101E9000ED0600900194694602942846FEF764FD21
:101EA000A02000900D480194808E002802D00128C7
:101EB00003D003E00120029000E002946946284626
:101EC000FEF752FD40200090019469460294284696
:101ED000FEF74AFD05B030BD000400484008002070
:101EE000F8B5C82003F0C2FB0927FF0610213846C9
:101EF000FEF7D8FD01250026114C002818D0A66356
:101F00000121C9033846FEF7CDFD002812D0E66353
:101F10000C4F02213846FEF7C5FD00280CD0666440
:101F200080213846FEF7BEFD002807D02664F8BDA4
:101F3000A563E5E7E563EBE76564F1E72564F8BDD4
:101F40000007002000040048064A054912680020E6
:101F50008300D358401C08C12628F9D370470000DD
:101F60006C0000201400002010B5044826214160B8
:101F70000349406804F0DCFE10BD0000140000209E
:101F80006C00002008B50C484269012189050A430C
:101F9000426142690A400092426949110A43426122
:101FA00042690A400092426949000A43426140691D
:101FB0000840009008BD00000010024010B50E4916
:101FC0000E48012206C0002101608160C1600161EC
:101FD0004161426081610838FEF7C0FD0021074879
:101FE000FEF772FD00210548FEF793FD04480168E5
:101FF00002011143016010BD00540040040500209F
:102000000000014010B58AB0002407941C216846E6
:102010000894FEF789F901211848890701602821F1
:10202000846041607D210461C9008461C160FFF763
:10203000C9FB079407A911480894FFF705FB602026
:102040000090019402940022694604940B48FFF723
:1020500051FB042269460948FFF74CFB08226946F8
:102060000648FFF747FB0C2269460448FFF742FB8E
:102070000248FFF719FB0AB010BD00005005002010
:1020800010B50A4808490160E12149024160002178
:102090008160C16001618161C1610C2201624261A4
:1020A0004162FFF779FC10BD003801409005002027
:1020B000704700008307FF22DB0E9A408907090E54
:1020C000994000280BDA0007000F083883080848F9
:1020D0009B001818C36993430B43C361704783087F
:1020E00004489B001B181868904308431860704709
:1020F00000ED00E000E400E0FFB5074614460120D3
:10210000001B86B000B2009001200290D003001B9B
:10211000400000B201900E46081981B20025B8B205
:10212000099A00F0F9F9301B81B2B8B2099A00F0AF
:10213000F3F93819B1B280B2099A00F0EDF9B1B2F1
:10214000381B54E0009800280ADB0198641E801CAC
:1021500000B201900199009824B2401800B200909A
:1021600002986D1C801C00B20290029900982DB25A
:10217000401800B20090301981B203907819049091
:1021800080B2099A00F0C8F90398099A81B2781BC5
:10219000059080B200F0C0F9301B81B20390049822
:1021A000099A80B200F0B8F90398099A81B20598AB
:1021B00080B200F0B1F9701981B20390381905901E
:1021C00080B2099A00F0A8F9039881B2381B0490F4
:1021D00080B2099A00F0A0F9701B81B203900598B3
:1021E000099A80B200F098F9039881B20498099A8C
:1021F00080B200F091F9A542A4DB0AB0F0BDFFB5B2
:10220000074614460120001B86B000B20190012051
:102210000390D003001B400000B202900D46081945
:1022200081B20026B8B2099A00F076F9281B81B273
:10223000B8B2099A00F070F938190590A9B280B2C5
:10224000099A00F069F9381B0490A9B280B2099A82
:1022500000F062F9099800900598ABB282B2A9B279
:1022600044E0019800280ADB0298641E801C00B23A
:1022700002900299019824B2401800B2019003988C
:10228000761C801C00B203900399019836B2401866
:1022900000B2019009980090B81982B205902919EE
:1022A000B81B8BB2049089B280B200F0ADF80998E7
:1022B00000900498291B82B205988BB289B280B233
:1022C00000F0A2F809980090381B82B20590A91975
:1022D00038198BB2049089B280B200F095F8099851
:1022E0000090A91B05988BB282B289B2049880B283
:1022F00000F08AF8A642B4DB0AB0F0BDFCB51F4678
:102300000D46064680281FD2402D1DD2B0188028C9
:1023100002D38020801B82B2E819402802D34020DB
:10232000401B87B20024B01801900BE00798009082
:10233000019928198AB283B281B2304600F064F85C
:10234000641CE4B2BC42F1D9FCBDF0B59C46034626
:102350000027D01A88B00C46002800DC981A01B279
:102360006046001B002801DC6046201A00B21EB245
:1023700025B29A4202D30122059202E00022D24302
:1023800005920492A44502D30122039202E00022A6
:10239000D24303920292814209DB0022029205920B
:1023A000CA0F0191521854100691079027E000229D
:1023B00004920392C20F01901218541007910690D4
:1023C0001DE00F980090A9B2B0B20E9B0D9A00F0DC
:1023D0001BF80798201804B20198844207DB201AE2
:1023E00004B20598301806B20398281805B204986C
:1023F000301806B2029828187F1C05B23FB2069822
:102400008742DEDD08B0F0BDF0B587B01D4614464A
:102410000E460746802800D37F27802C00D37F24D8
:10242000402E00D33F26402D00D33F25A74201D2A6
:10243000E01B00E0381B00B20290AE4201D2A81BA4
:1024400000E0701B00B200900020C043A74201D200
:10245000012100E001460691AE4200D20120059024
:1024600000990298884200DC4842C10F08184010C9
:1024700000B201900298002825D00098002837D09B
:10248000029840420490314638460C9A00F044F8D5
:10249000A74201D1AE4229D004990198884206DDB5
:1024A000009A811A09B20191069979188FB20099A0
:1024B0008842E8DA02990198401800B20190059824
:1024C000301886B2DFE7B54202D22846354686B2DA
:1024D000BC4200D2A7B234B206E0A1B238460C9A90
:1024E00000F01AF8641C24B2AC42F6DD07B0F0BD6F
:1024F000B54200D2AEB2BC4202D220463C4687B2C0
:102500003DB206E0A8B231460C9A00F005F86D1C09
:102510002DB2A542F6DDE9E770B5802815D2402935
:1025200013D24D0701246D0F0A4BAC40C9081E7928
:10253000C901094B0818002E02D0002A06D001E07C
:10254000012A03D0195CA143195470BD195C2143C1
:10255000FAE700002400002004010020F8B51E4620
:102560000D46044680282ED2402D2CD2A01880285B
:1025700002D38020001B82B2A819402802D3402039
:10258000401B86B20698A7180090BAB20B462046A8
:10259000FFF73AFF0698AE190090B3B2BAB2B1B2E3
:1025A0002046FFF731FF069822460090B3B2294635
:1025B0001046FFF729FF06980090B3B2BAB2B8B23E
:1025C0002946FFF721FFF8BD10B5002806D0FF22ED
:1025D000012189020248FDF7A0FE10BD0022F7E7A5
:1025E00004010020014A108051807047240000201F
:1025F00010B504F09BF8534B012278215248FEF7A6
:1026000007FB002801D0002010BD5048401EFDD11E
:10261000AE220021782004F08FF8202200217820BB
:1026200004F08AF810220021782004F085F8B02206
:102630000021782004F080F8C8220021782004F0DE
:102640007BF800221146782004F076F81022002151
:10265000782004F071F840220021782004F06CF812
:1026600081220021782004F067F8FF2200217820E1
:1026700004F062F8A1220021782004F05DF8A6227F
:102680000021782004F058F8A8220021782004F0D6
:1026900053F83F220021782004F04EF8A4220021B4
:1026A000782004F049F8D3220021782004F044F87F
:1026B00000221146782004F03FF8D522002178202E
:1026C00004F03AF8F0220021782004F035F8D922FD
:1026D0000021782004F030F822220021782004F034
:1026E0002BF8DA220021782004F026F812220021AB
:1026F000782004F021F8DB220021782004F01CF877
:1027000020220021782004F017F88D220021782063
:1027100004F012F814220021782004F00DF8AF2202
:102720000021782004F008F80020FFF74DFF00F0AA
:102730006DF8074800210180418001214171084660
:1027400010BD0000204E000004050020C20900005A
:1027500024000020F7B50D4621482A780188891801
:10276000802904D2408869784018402801D300208D
:10277000FEBD002627E000996A6820394843801989
:102780004000175A00241AE03846A040000408D53B
:102790001348029A418800888919001989B280B2C9
:1027A0000AE00298002818D000220D4841880088CD
:1027B0008919001989B280B2FFF7AEFE641C28782F
:1027C000A042E1D8761C6878B042D4D804482A7870
:1027D0000188891801800098FEBD0122E5E700000C
:1027E0002400002070B515460E46044609E02A462E
:1027F0003146FFF7AFFF2178884201D0C8B270BDE3
:10280000641C20780028F2D1C0B270BD70B50F4DA5
:1028100000242046B030C2B20021782003F08CFFA3
:1028200000221146782003F087FF10220021782033
:1028300003F082FFE001421980234021782003F059
:102840008BFF641CE4B2082CE3D370BD04010020AC
:1028500010B598B034216846FDF766FD00240D944C
:102860000E940F94182111A81094FDF75DFD3220ED
:10287000009001200390089005901020049006908D
:1028800009946846FEF7DCFC07200D9003200E90AB
:102890000F94012110940DA8FEF7CEFB212011907A
:1028A0001394149411A8FEF741FB18B010BD00005A
:1028B000134801680122114301604168114A114027
:1028C00041600168104A11400160016801229204D0
:1028D0009143016041683F22120491434160C16A03
:1028E00009090901C162016BFF22D43291430163DE
:1028F000416B490849004163002181607047000035
:10290000001002400CB8FF08FFFFF6FE544C0220F6
:10291000254601266035A0642E752746803FE66473
:102920000EE0A06C02280BD0032828D0042841D048
:1029300005285FD00628F4D1687D002872D08BE08E
:10294000FFF7CEFA206C002804D0642002F08EFE3F
:10295000FDF74EFEA16BE06C4018E16B401AE0649D
:10296000626CA16C8918A164092801DDE66403E0AA
:10297000012801DA0920E06402F03CFCD1E7FFF70E
:10298000AFFA642002F072FE287D218F4018A18FDB
:10299000401AC0B22875626CA16C8918226C891A21
:1029A000A164092801D92E75BBE70028B9D10920F7
:1029B0002875B6E7FFF794FA322002F057FE616CF3
:1029C000A06C4018216C401AA06401210920C902A2
:1029D000C006FEF767F8002802D06E757E6602E03A
:1029E000687D01289DD1FDF7E3FEFFF7DDF902F0D8
:1029F000C9FD96E7FFF774FA642002F037FE616CB8
:102A0000A06C4018216C401AA06401210920C90261
:102A1000C006FEF747F8002883D00620A0647E6633
:102A20007FE7FFE7FFF75CFA642002F01FFE216CEE
:102A3000A06C401AA064A87D401CA875AD20800041
:102A400002F014FEA87D052806D16E75FDF7B0FED4
:102A5000FFF7AAF902F096FD642002F007FE60E796
:102A600000070020F0B502681A4B0124A4071A4D94
:102A7000984203D0A04201D0A84203D17026B243AD
:102A80004E683243154E164F98420AD0A04208D0E5
:102A9000A84206D0134CA04203D0B04201D0B842A5
:102AA00004D103242402A243CC6822438024A243FD
:102AB0004C69224302608A68C2620A688262984254
:102AC00003D0B04201D0B84201D1096901630121AC
:102AD0004161F0BD002C0140000400400044014071
:102AE000004801400020004010B50123046A8B40DB
:102AF0009C430462036A8A401343036210BD0000D2
:102B0000F0B5026A520852000262056A436882699F
:102B10007024A24392080C68920014430222954349
:102B20008A68134E2A43114DA84204D0B04202D005
:102B3000104FB84206D10827BA43CF681743042282
:102B400097433A46A84204D0B04202D0094DA84269
:102B500006D103252D02AB434D691D438B692B43E1
:102B600043608461496841630262F0BD002C01400A
:102B7000004401400048014070B5026A10239A43A6
:102B80000262046A4368826973252D02AA430D68B4
:102B90002D021543202294438A6812012243104CCF
:102BA000A04208D11446CA688026B44312012243C9
:102BB0004024A24305E00B4CA04202D00A4CA042A4
:102BC00008D10324A402A3434C69A4001C438B69CD
:102BD0009B0023434360856149688163026270BD45
:102BE000002C0140004401400048014070B5026AD9
:102BF000FF2301339A430262046A4368C269702565
:102C0000AA4392080D689200154301225202944390
:102C10008A6812022243104CA04207D1C414A24376
:102C2000CC68240222430615B24305E00B4CA042B7
:102C300002D00B4CA04208D103242403A3434C69C7
:102C400024011C438B691B0123434360C561496810
:102C5000C163026270BD0000002C014000440140CD
:102C60000048014030B5026A01231B039A43026207
:102C7000056A4268C36973242402A3430C682402D2
:102C80001C4301235B039D438B681B032B430A4DAD
:102C9000A84205D0094DA84202D0094DA84205D14D
:102CA0000125AD03AA434D69AD012A434260C461C9
:102CB00049680164036230BD002C014000440140BA
:102CC000004801401D4C012625460927FF35F60224
:102CD000FF066135803431463846FDF7E3FE0028B3
:102CE00002D1606E012806D031463846FDF7DAFE83
:102CF000012809D00BE000210846FDF7C9FC00209F
:102D000068750120606614E0606E012803D0687D5C
:102D1000012807D00DE0616DA06DFDF7B9FC012021
:102D2000687506E0606E022803D1616DA06DFDF745
:102D3000AFFC012002F09AFCCDE700000006002065
:102D4000274C28482178807D002901D100280DD00A
:102D5000012839D002F082FE2A22611C2248FEF7A7
:102D600089FE00F0F1FC02F0F1FDFAE702F076FED8
:102D70001B4CE51DF935FF346134A86C022808D0DE
:102D8000032809D004280AD005280ED006280FD021
:102D900013E003F045FE10E001F096FF0DE0607DCA
:102DA000002808D102F034FD07E002F063FD04E0E2
:102DB000607D002805D002F081F9012002F056FC68
:102DC000DBE702F081FDF8E702F048FE02F01CFEAE
:102DD0001122611C0448FEF74DFE01F05DFAFCE78C
:102DE0000006002060080020900500200020B14C63
:102DF00088B0E062206360620746A062AE4A0121AB
:102E0000202002F085FEAC4A0121102002F080FE55
:102E100009250121ED064E022A46304602F078FED1
:102E200001212A46880202F073FE01222021A248D5
:102E3000FDF73DFE012210219F48FDF738FE0122DB
:102E400031462846FDF733FE012291022846FDF760
:102E50002EFE994A0021202002F05AFE964A0021B7
:102E6000102002F055FE2A460021304602F050FEA6
:102E70002A460021700002F04BFE0026FF25F535A2
:102E800004950095039520218B48761CFDF70AFEDA
:102E9000002804D12846FF38F53800D135461021E6
:102EA0008548FDF7FFFD002805D104980146FF394C
:102EB000F53900D10496012109204902C006FDF729
:102EC000F1FD002805D100980146FF39F53900D100
:102ED0000096012109208902C006FDF7E3FD0028C4
:102EE00005D103980146FF39F53900D10396FF203B
:102EF000F5308642C7DBE06A7F1C4019E062216B37
:102F0000049808182063616A009808186062A16A32
:102F100003980818A0620A2F00DA6FE70A21E06A16
:102F2000FDF7D6F9E0620A21206BFDF7D1F92063A5
:102F30000A21606AFDF7CCF960620A21A06AFDF7F8
:102F4000C7F9A0625C4D01212A46202002F0E0FD75
:102F50002A460121102002F0DBFD09260121F60698
:102F60004F023246384602F0D3FD01213246880234
:102F700002F0CEFD012220212846FDF798FD012216
:102F800010212846FDF793FD012239463046FDF712
:102F90008EFD012291023046FDF789FD2A4600216F
:102FA000202002F0B5FD2A460021102002F0B0FDDD
:102FB00032460021384602F0ABFD3246002178004F
:102FC00002F0A6FD0027FF25F5352E460095039556
:102FD000202139487F1CFDF765FD002804D12846D3
:102FE000FF38F53800D13D4610213348FDF75AFD32
:102FF000002804D13046FF38F53800D13E46012183
:1030000009204902C006FDF74DFD002805D10098B2
:103010000146FF39F53900D10097012109208902C5
:10302000C006FDF73FFD002805D103980146FF3992
:10303000F53900D10397FF20F5308742C8DBE06AFD
:10304000401BE063206B811B2164009A801A60633F
:10305000A26A0398101A0246A06300D55242782A49
:1030600002DD0022D24300E001222267002800DABC
:103070004042782802DD0020C04300E00120606764
:103080000029084600DA4042962802DD0020C043AD
:1030900000E00120A067002900DA4942962902DDFC
:1030A0000020C04300E00120E067022002F0DEFAC9
:1030B00048E7000080060020000400481B4C002761
:1030C000E61DF9363546C0358034B06D012807D08D
:1030D00009204021C006FDF7E5FC002810D06764F8
:1030E000206D411C15D00122E06411461048FDF707
:1030F000DEFC1048C765206D002804DD012006E0D5
:1031000001206064ECE7002808DA0020C04328763C
:1031100004E0002201210648FDF7C9FCFDF704FB8D
:103120002065022002F0A2FACFE70000000600208E
:10313000000400488007002010B5818CC90707D023
:1031400001684A6801235B049A43836A1A434A6010
:10315000818C890707D501684A6801231B049A43BB
:10316000C36A1A434A60818C490707D501684A68D7
:1031700001239B049A43036B1A434A60818C09071D
:1031800007D501684A680123DB039A43436B1A435E
:103190004A60818CC90607D50268916801231B0328
:1031A0009943836B19439160818C890607D5016827
:1031B0008A6801235B039A43C36B1A438A60818C3C
:1031C000490612D503685A6801210905046C8A432F
:1031D00022435A60026C8A4207D102685168032375
:1031E0005B059943436C19435160818C090607D5EF
:1031F00001684A680123DB04806C9A4302434A60F9
:1032000010BD0000F8B500260446C666FDF756FC62
:1032100005461449206888421DD10068124F0007F6
:1032200009D501212B46002249052046009700F0D0
:103230004CF900280DD12068006840070BD501210A
:103240002B46002289052046009700F03EF9002811
:1032500001D00320F8BD202060346072A072267275
:103260000020F8BD00380140FFFFFF0110B5406AA3
:103270000022014640314A834A82FEF7F2FA10BD2D
:1032800001680A68FF2321339A430A6001688A684B
:10329000520852008A60202160308172704710B558
:1032A00001680A6840239A430A60202269210A546F
:1032B000FEF795FC002010BD70B502464032034673
:1032C0006033948B9D7A0168222D05D0886908228D
:1032D00010438861022070BD898C01268568360301
:1032E000B54202D10569002D0BD02140446D651C0B
:1032F00045652170518B491E0904090C518307D083
:1033000015E0456D21402980416D891C4165F1E73B
:1033100001680A68FF242134A2430A6001688A68B0
:10332000520852008A6020219972FEF7F3FB0020B8
:1033300070BD0000F8B504462369A268E5691A4328
:10334000636910202B43002125681A432B680E4621
:103350003E4F3B4013432B6023685A6803252D03DF
:10336000AA43E5682A435A60236AA26925681A437A
:10337000AB680B273F02BB431343AB60344A25685D
:10338000954210D1334A126B9207920F0ED0012A48
:1033900005D0022A05D0032A09D1022007E0042023
:1033A00005E0082003E02C4A954200D100200122CC
:1033B000E369D203934224D100280CD002280DD017
:1033C000042813D0082817D001260A09120108077B
:1033D000400F10432FE0FDF7DFFE09E061681F4A50
:1033E00048088018FCF75EFF81B2EEE7FDF7E4FEC7
:1033F000616840004A08F4E7616801224808120445
:10340000EFE7002808D0022809D004280BD00828AC
:1034100014D001263046F8BDFDF7BEFE05E0616818
:103420000F4A48080CE0FDF7C7FE61684A0880189B
:10343000FCF738FF80B22168C860EBE76168480894
:103440008018FCF72FFF80B2E860E3E7F369FFEF35
:103450000038014000100240004400400024F40005
:1034600000127A006921095C212901D002207047ED
:1034700002464032518A002912D0012381681B0381
:10348000994202D10169002915D0C16C4B1CC3645B
:10349000006809780185508A401E508200207047DC
:1034A00001680A6880239A430A6000680168402224
:1034B00011430160F2E7C16C03680988C905C90DB1
:1034C0001985C16C891CC164E5E7FFB581B0174659
:1034D0000E4604460A9D1DE0681C1BD0002D05D039
:1034E000FDF7ECFA0499401AA84213D92068016844
:1034F000FF22A13291430160206881684908490098
:103500008160202060346072A0720020207203204D
:1035100005B0F0BD2068C1693046884304D0002062
:10352000B842D9D00020F3E70120F9E710B50348ED
:10353000012141770248FEF795F910BD20060020D1
:10354000900500200FB410B504A9074B02AA0398F8
:1035500000F04CF8044602A9002000F0EFF82046E5
:1035600010BC08BC04B018473D37000830B474469E
:10357000641E2578641CAB4200D21D46635D5B006F
:10358000E31830BC184702E008C8121F08C1002A1F
:10359000FAD170477047002001E001C1121F002AD4
:1035A000FBD1704710B5002A06DA52005208D21D2E
:1035B000D308DB00102203E0D21C93089B000C22EE
:1035C000002B02D09C188C4201D9012010BD82181A
:1035D0008360411802604160C91AD018884202D83D
:1035E00010600246F9E70020106010BDFFB58DB0F5
:1035F0000446002506E025280AD0109A0F99904726
:10360000641C6D1C20780028F5D1284611B0F0BD4F
:1036100000270121484A009700E00743641C2378F3
:103620000846203B98401042F7D120782E2817D129
:10363000042007436078641C2A280CD10E98641C6F
:1036400002C800910E900BE000990A2251433039D4
:103650004018641C00902078014630390929F3D9BC
:1036600020780028D1D0642808D0692806D0752891
:103670001ED0109A0F9990476D1C5BE00A200E999E
:10368000019001C90E91002802DA40422D2102E08A
:10369000390504D52B216A461172012103E0F9078F
:1036A00004D02021F7E70BAE0B910DE00021FAE7E3
:1036B0000A200E99019001C90E91F7E70199FCF7D4
:1036C000F1FD3031761E31700028F7D103A8801B40
:1036D00020300190780701D5009801E0012000908A
:1036E0000199884201DD401A00E000200027009087
:1036F00006E002A8109AC05D0F9990476D1C7F1CD0
:103700000B988742F5DB04E0109A30200F99904720
:103710006D1C0099481E00900029F5DC05E030780A
:10372000109A761C0F9990476D1C0199481E0190C4
:103730000029F4DC641C65E7092801000A68531CB1
:103740000B60107070470000F0B589B00A2001F0DE
:103750008DFFFD48FE4E417F3546FC4F403D002920
:103760007ED0002141770091F74800992038441815
:1037700060784B2811D04C280FD04D280DD04E2802
:103780000BD04F2809D0502807D0512805D05228F7
:1037900003D0532801D054287ED13887A0784128FF
:1037A0007BD12079A1796422303850430A1861799D
:1037B0000A20414321200001081A1018FCF79FFE3F
:1037C000E349642280390860207AA17A3038504376
:1037D0000A18607A0A21484321210901401A101869
:1037E000FCF78DFEDA497D2280394860207BE17B41
:1037F000D200303850430A18607B64214843A17BD3
:103800000A23594340181118D2487D220918D0487C
:10381000D2008038C160607C217D303850430A1866
:10382000A07C64214843E17C594340181118C948E1
:103830007D220918C648D20080380161A07D617ED2
:10384000303850430B18E07D64214843217E0A2222
:10385000514340181918BF480918BD48803800E086
:10386000FEE34161E07E617F6422303850430A18F4
:10387000207F0A21484321210901401A1118B44828
:103880007D22803881612046203084468178E07F27
:10389000D2003038504301E092E015E00A1860464B
:1038A000007864214843614649780A235943401807
:1038B000A84910184118A6488038816060460079F0
:1038C0005A287DD1FEF750FBA07842285ED120799E
:1038D0007D22E179D200303850430A1861796420A2
:1038E0004143A0790A235843081811189948091828
:1038F000974880388183607A7D21227BC9003038E7
:1039000048431018A27A64214A43E37A0A214B43C0
:10391000D11841188F48642209188D482123803816
:10392000C183A07B217C303850430818E27B0A21F8
:103930004A431B01D11A4018854980394884A07C2C
:1039400064213038227D48431018E17C0A2251431B
:10395000C91A40187E497D2280398884A07D617E05
:10396000D200303850430818E27D64214A43217E5A
:103970000A23594351184118764809187448803869
:103980000184E07E5A289CD1FEF7EEFAA078432805
:1039900056D120797D22E179D200303850430A187F
:1039A000617964204143A0790A235843081811180B
:1039B0006848081866498039C884217B607A00E02D
:1039C00060E17D22D200303850430B18A27A642087
:1039D0004243E17A0A204143501819185D487D227C
:1039E00009185B48D20080380185A07B617C3038A3
:1039F00050430B18E27B64204243207C0A21484359
:103A00001018191853487D2208185149D2008039DE
:103A10004885E07CA17D303850430918227D642020
:103A20004243607D0A235843101809184948081872
:103A3000474980398885207E5A28A4D1FEF794FA18
:103A4000A07844287ED120797D22E179D2003038D7
:103A500050430A18607964214843A1790A235943E5
:103A6000401811183B486422081839498039C88524
:103A7000607AE17A303850430A18A07A21215843FD
:103A80000901401A3249101880390886607BE17BB1
:103A90006422303850430A18A07B0A214843212170
:103AA0000901401A2A49101880394886607CE17C57
:103AB0006422303850430A18A07C0A21484321214F
:103AC0000901401A2249101880398886607DE17DFD
:103AD0006422303850430A18A07D0A21484321212E
:103AE0000901401A1A4910188039C886607EE17EA3
:103AF0006422303850430A18A07E0A21484321210D
:103B00000901401A1249101880390887607FE17F47
:103B10006422303850430A18A07F0A2148432121EB
:103B20000901401A0A491018803948872046203078
:103B3000417864233039C2785943521883780A2176
:103B40004B4309E022E0000020060020C0070020CF
:103B5000EC00002030EBFFFF21210901591A521817
:103B6000FE4964238A874179C27930395943521812
:103B700083790A214B4321210901591A5118F74A27
:103B8000D187407A5A287DD1FEF7EEF9A0784528F2
:103B900079D120797D22E179D200303850430A185A
:103BA000617964204143A0790A2358430818111809
:103BB000EB48642208182880607AE17A3038504354
:103BC0000A18A17A212059430001081A10186880A8
:103BD000607BE17B6422303850430A18A07B0A21C5
:103BE000484321210901401A1018A880607CE17C1B
:103BF0006422303850430A18A17C0A204143212016
:103C00000001081A1018E880607DE17D64223038D8
:103C100050430A18A07D0A21484321210901401A76
:103C200010182881E17E607E6422303850430A18E3
:103C3000A07E0A21484321210901401A10186881F9
:103C4000607FE17F6422303850430A18A07F0A2148
:103C5000484321210901401A1018A881204620302C
:103C6000417864233039C2785943521883780A2145
:103C70004B4321210901591A5118E981C27941792F
:103C8000642301E08CE00FE0303959435118827908
:103C90000A235A4321231B01D21A89182982407A08
:103CA0005A287DD1FEF760F9A078462849D12079BD
:103CB0007D22E179D200303850430A1861796420BE
:103CC0004143A0790A23584308181118A4487D22BB
:103CD00008186882607A217BD200303850430A1875
:103CE000A07A64214843E17A5943401811189C484E
:103CF0007D220818A882A07B617CD2003038504316
:103D00000A18E07B64214843217C5943401811186C
:103D100093487D220818E882E07CA17DD2003038EB
:103D200050430A18217D64204143607D58430818A0
:103D300011188B4808182883207E5A28B1D1FEF725
:103D400013F9A07847284BD120797D22E179D20060
:103D5000303850430A18607964214843A1790A2316
:103D60005943401811187E487D2208186883607AEC
:103D7000217BD200303850430A18A17A6420414395
:103D8000E07A58430818111875487D220818A8834E
:103D9000A07B617CD200303850430A18E17B00E000
:103DA00022E164204143207C5843081811186C48D4
:103DB0007D220818E883E07CA17DD2003038504392
:103DC0000A18217D64204143607D5843081811186A
:103DD000634808182884207E5A28AFD1FEF7C4F81B
:103DE000A07848287ED120797D22E179D200303830
:103DF00050430A18617964204143A0790A2358434B
:103E0000081811185648642208186884607AE17A04
:103E1000303850430A18A17A212059430001081A6A
:103E20001018FCF76CFB4D4964224866607BE17B0F
:103E3000303850430A18A07B0A2148432121090148
:103E4000401A1018FCF75BFB444964228866607CCA
:103E5000E17C303850430A18A17C0A2041432120DC
:103E60000001081A1018FCF74AFB3C496422C86696
:103E7000607DE17D303850430A18A17D0A2041431E
:103E800021200001081A10182886607EE17E642235
:103E9000303850430A18A17E0A20414321200001F6
:103EA000081A10186886607FE17F6422303850431A
:103EB0000A18A17F0A20414321200001081A101886
:103EC000A886204620304178C2786423303959438F
:103ED000521881780A23594321231B01C91A51180A
:103EE000E98600E004E040795A287DD1FEF73CF8ED
:103EF000A078492879D120797D22E179D200303823
:103F000050430A18617964204143A0790A23584339
:103F1000081811181248642208182887607AE17A74
:103F2000303850430A18A07A212158430901401A19
:103F30001018FCF7E4FA09496422C867607BE17B4A
:103F4000303850430A18A17B0A2041432120000148
:103F5000081A1018FCF7D3FA306003E06C00002058
:103F600030EBFFFF607CE17C6422303850430A185C
:103F7000A07C0A21484321210901401A1018FCF7AE
:103F8000BEFA7060607DE17D6422303850430A18CB
:103F9000A07D0A21484321210901401A10183081CF
:103FA000607EE17E6422303850430A18A17E0A20E8
:103FB000414321200001081A10187081607FE17FC1
:103FC0006422303850430A18A07F0A214843212137
:103FD0000901401A1018B08120462030417864232E
:103FE0003039C278594301E035E00DE0521881784C
:103FF0000A23594321231B01C91A5118F181407921
:104000005A2828D1FDF7B0FFA0784A2823D120797B
:104010007D22E179D200303850430A18607964215A
:104020004843A1790A23594340181118764864225D
:1040300008183082607AE17A303850430A18A07A42
:10404000212158430901401A10187082607B5A28B8
:1040500001D1FDF789FF0098401C00903C2800E04A
:1040600012E001DAFFF780FBC82001F0FFFA002020
:10407000664902460B18401C5A703C28FADB2A227B
:104080006348491CFDF7F6FC6049388F3E31202417
:1040900007914B2812D04C2828D04D2833D04E28D9
:1040A00039D04F2846D0502856D051285BD05228BE
:1040B00064D0532878D0542877D07EE0554D686876
:1040C000FCF728FA05902868FCF724FA29461031F5
:1040D0004AC90246A868049001A84AC0E86800904E
:1040E0004DA1059B0798FFF72DFA5FE049486D4603
:1040F000018C838C428C0EC5C38B828B4CA107989C
:10410000FFF720FA52E04348828D418D01920091E1
:10411000038DC28C2DE03F4803AE018FC58F838F86
:10412000428F2EC6418EC38E828E6D460EC5038E83
:10413000C28D0CE068892B8AEA89A98903AE0FC673
:10414000A8882A89E9886B4607C36B882A883CA11E
:104150000798FFF7F7F929E0298BE88A0191009089
:10416000AB8A6A8A05E0298CE88B01910090AB8BC1
:104170006A8B3AA10798FFF7E5F917E0254EF06E34
:10418000FCF7C8F90190B06EFCF7C4F90090706EAE
:10419000FCF7C0F90346EE8EAA8E698E288E05962E
:1041A00002AE07C66A8C23E00CE026E064231A46C0
:1041B00017480799FDF7AFFC3C87142001F056FA29
:1041C00009B0F0BD7068FCF7A5F901903068FCF704
:1041D000A1F900900F48C06FFCF79CF90346F089E5
:1041E000B2897189368902960492039105902A8FCB
:1041F0001EA10798FFF7A6F9D8E7738A328A22A191
:104200000798FFF79FF9D1E730EBFFFF000600208A
:10421000900500206C00002025647C25647C2564CA
:104220007C25647C25647C25647C25647C000000FE
:1042300025647C25647C25647C25647C25647C0065
:1042400025647C25647C25647C25647C25647C2530
:10425000647C25647C25647C25647C0025647C2545
:10426000647C25647C25647C0000000025647C253A
:10427000647C25647C25647C25647C25647C2564C1
:104280007C25647C0000000025647C25647C307CF7
:10429000307C307C00000000F8B5112001F0E6F918
:1042A0004748417F00297BD000214177FF304130D2
:1042B00002468646FF3021300B46E03A01468446EE
:1042C00080393F482038C0184478262C57D184784C
:1042D000412C05D000248C67C479422C12D01DE0FB
:1042E000C4787D268579F600303C74432E19047914
:1042F00064256C4345790A277D4364193519314C8F
:104300002C19E8E7047A302C02D0312C03D005E0D8
:104310000024E44300E0012465462C60447A432CE9
:1043200005D00024CC67847B442C12D01DE0847A15
:104330007D26457BF600303C74432E19C47A6425F3
:104340006C43057B0A277D43641935191D4C2C19D4
:10435000E8E7C47B302C02D0312C03D005E00024E8
:10436000E44300E0012465466C60007C232818D0FB
:1043700000207446607501245466506590655B1C8E
:104380003C2B9EDB00200E49024620390B18401CB6
:104390005A703C28FADB10220B48491CFDF76AFBD7
:1043A000F8BD012074466075022050666446886F2F
:1043B0002468604350656446C86F64686043DDE705
:1043C0002006002030EBFFFF9005002038B55F4D40
:1043D0000124286D002802D0022808D00EE0052311
:1043E0000622212149200094FEF7B8F806E00523B3
:1043F0000622212149200094FDF780FF686D0028E6
:1044000002D0022808D00EE00523092212214620FE
:104410000094FEF7A3F806E00523092212214620A6
:104420000094FDF76BFFA86D002802D0022808D089
:104430000EE006230522122138200094FEF78EF8A4
:1044400006E006230522122138200094FDF756FFCE
:10445000E86D002802D0022808D00EE005230922CA
:10446000122126200094FEF779F806E005230922A0
:10447000122126200094FDF741FF286E002802D06B
:10448000022808D00EE005230622212126200094D0
:10449000FEF764F806E00523062221212620009479
:1044A000FDF72CFF686E002802D0022808D00EE02D
:1044B0000523042208214A200094FEF74FF806E065
:1044C0000523042208214A200094FDF717FFA86E57
:1044D000002802D0022808D00EE00523042208217B
:1044E00042200094FEF73AF806E005230422082152
:1044F00042200094FDF702FFE86E002802D0022857
:1045000008D00EE00523042208212F200094FEF796
:1045100025F806E00523042208212F200094FDF74A
:10452000EDFE286F002809D0022806D105230422B9
:10453000082127200094FDF7E1FE38BD0523042261
:10454000082127200094FEF709F838BD0007002055
:10455000F0B50546424887B0044680348567A169B6
:10456000E1616169A16121696161E1682161A1681D
:10457000E1606268A26022686260C26F2260C56703
:10458000681AFBF7BCFF2062E61F0190F93E28463F
:10459000376DFBF7B4FF0690002F0BD0216CFBF7B3
:1045A000CEFE30492064884202DC2F49884203D97C
:1045B000216401E0002020642C49206CFBF755FFAA
:1045C0000390616A0198FBF713FF07460698A16AFA
:1045D000FBF70EFF3946FBF7B2FE0399FBF7AFFE80
:1045E000FBF798FFFBF78BFF07466064706C0028B1
:1045F00002D07D20C000E064002D01DB284600E0F1
:104600006842642807DC6D1C05D0606D401C606545
:10461000032804D008E0E06C401EE06404E0E06C95
:104620001430E06400206065E16AE06C884202DCDE
:10463000216B884200DAE164E06CFBF760FF04461E
:104640003946FBF7CDFEFBF765FF7065204639461E
:10465000FBF775FEFBF75EFFB06507B0F0BD00002D
:10466000000700200050C3470050C3C700007A4431
:10467000F8B5524D002601272E67EC1FEF66F93C76
:104680006E67A06F401C0CD0E06F401C09D0206FFB
:10469000401C02D0606F401C4DD14948A065606548
:1046A00031E04748A06560650FE04648A06540429C
:1046B0006065142000F0DAFFA06F012802D0E06FDF
:1046C000012800D12F67A6656665142000F0CEFF93
:1046D000206F012823D1606F012820D1286F002886
:1046E000E3D01CE0FF209130A065404260651420BB
:1046F00000F0BCFF206F012802D0606F012800D1BC
:104700006F67A6656665142000F0B0FFA06F0128F2
:1047100005D1E06F012802D1686F0028E2D0A06FB8
:10472000401C02D0E06F401C05D1206F401C02D11C
:10473000606F401C3CD0F8BD012808D12048A0651E
:104740006065962000F092FFE86E401CE866022843
:104750001ED1A06F401C02D0E06F401C05D1206F1D
:10476000401C02D1606F401C15D015484042A06526
:104770006065142000F07AFFAF208000A065404201
:104780006065FF20413000F071FFE86E401CE86674
:1047900003280DD101E0EF660AE0A66532206665C8
:1047A00000F064FFFF20F530A06560650420E86636
:1047B000E86E411E0229BFD9F8BD00008007002025
:1047C00019FCFFFF70FEFFFFF8B5204C1E4F254679
:1047D000803DEE1D788FE065FF36FF35206EFA369E
:1047E0008135012827D0F8BD3188286E884203DA48
:1047F000F98F6165A16505E0C82805DA206DFFF72E
:10480000A7FE286E401C09E07188884205DA401C2A
:10481000286600206065A06501E000202866206D04
:10482000401C02D0E06E401CE066E06D401EE0657A
:10483000012000F01BFFE06D0028D4D0B98FE06E9E
:104840008842D1DBF8BD0000C007002080060020B0
:1048500070B50F4D0F4CA888E065206E012815D16A
:10486000E88860652889A06509E0226D521C01D0A6
:10487000401CE066491E0120E16500F0F7FEE16D95
:10488000002903D06A89E06E9042EEDB70BD000023
:104890000008002080060020F8B5214D214CA88991
:1048A000E065206E042601280AD002282BD00328B8
:1048B00034D1688BA0656065A88B00F0D7FE2CE032
:1048C000E88941426165A065288A00F0CFFE164F55
:1048D0000EE0A98AA165698A401E6165E065012034
:1048E00000F0C4FE606BB84202DA0020E06505E02B
:1048F000E06D002802D0216DC831EAD10220206687
:10490000206DC83009D0E88A4142A1656065288BD6
:1049100000F0ACFE03202066CBE72666F8BD000061
:10492000000800208006002024FAFFFFF8B5214D82
:10493000214CE88BE065206E042601280AD002286D
:104940002BD0032834D1A88DA0656065E88D00F0D8
:104950008DFE2CE0288C60654042A065688C00F0DC
:1049600085FE164F0EE0E98CA165A98C401E61659D
:10497000E065012000F07AFE606BB84202DA0020A8
:10498000E06505E0E06D002802D0216DC829EAD17C
:1049900002202066206DC82809D0288DA0654042DD
:1049A0006065688D00F062FE03202066CBE7266616
:1049B000F8BD0000000800208006002024FAFFFF58
:1049C00070B5114D114C288EE065206E01281AD16A
:1049D000688E6065A88E4042A0650AE0226D653A47
:1049E000632A01D2491CE166401EE065012000F007
:1049F0003DFEE06D002803D0EA8EE16E9142EDDBD2
:104A000000206065A06570BD0008002080060020C1
:104A100070B5114D114C288FE065206E01281AD118
:104A2000688F40426065A88FA0650AE0226DC7329A
:104A3000632A01D2491CE166401EE065012000F0B6
:104A400015FEE06D002803D0EA8FE16E9142EDDBA8
:104A500000206065A06570BD000800208006002071
:104A6000F0B53A4D384E7D2785B03088BF012C46D1
:104A70008034E86559E0401EE865696F286F40188A
:104A800020600290216A6162E1692162A169E161AD
:104A90006169A16121696161E2682261A268E260E5
:104AA0006268A260411AA162606000910A22E16A14
:104AB00050430818E062B84201DDE76203E0244990
:104AC000884200DAE1623221E06AFBF701FCFBF781
:104AD00016FD01900098FBF712FD1B494039039128
:104AE000C96CFBF785FC00900298FBF708FD039961
:104AF000496CFBF77DFC0099FBF721FC0199FBF762
:104B00001EFC2063FBF706FD6063002805DA718A4E
:104B10000818A865308A686504E0318A081A686553
:104B2000708AA865012000F0A1FD286DC83002D070
:104B3000E86D00289FD1B08A4142A9656865F08A76
:104B400000F094FD05B0F0BD400800208006002074
:104B5000C0E0FFFFF0B53A4D384E7D2785B0308B71
:104B6000BF012C468034E86559E0401EE865E96FD6
:104B7000A86F401820600290216A6162E169216299
:104B8000A169E1616169A16121696161E2682261F4
:104B9000A268E2606268A260411AA162606000914E
:104BA0000A22E16A50430818E062B84201DDE76278
:104BB00003E02449884200DAE1623221E06AFBF72F
:104BC00087FBFBF79CFC01900098FBF798FC1B49C6
:104BD00040390391496EFBF70BFC00900298FBF7FC
:104BE0008EFC0399C96DFBF703FC0099FBF7A7FB4B
:104BF0000199FBF7A4FB2063FBF78CFC60630028A2
:104C000005DA718D081AA865308D686504E0318D6C
:104C100008186865708DA865012000F027FD286DD3
:104C2000C82802D0E86D00289FD1B08DA865404209
:104C30006865F08D00F01AFD05B0F0BD4008002059
:104C400080060020C0E0FFFF10B50648064C418EEC
:104C50004A42A2656165008E00F008FD0020A06553
:104C6000606510BD400800208006002010B5154882
:104C7000007D0300FEF77AFC0A2006090C0F1215CE
:104C8000181B1E20FFF7A0FD16E0FFF7E1FD13E063
:104C9000FFF702FE10E0FFF749FE0DE0FFF790FE80
:104CA0000AE0FFF7B5FE07E0FFF7DAFE04E0FFF7E2
:104CB00051FF01E0FFF7C8FF02480021E03881659D
:104CC000416510BD60070020FEB50020FDF77CFCAB
:104CD00001231F2220214020FDF70EFA202201236C
:104CE00011464020FDF708FA01232122202140200F
:104CF000FDF702FAF0480124007D2127092641250D
:104D00000300FEF733FC0A620635639CD5FEFDFC0A
:104D1000FB620C230E222C213A200094FDF71EFC8E
:104D200003230E222C213A200094FDF717FC0123C7
:104D300002223B213C20FDF7DFF904230622392122
:104D40003E200094FDF70AFC012302223B2146206D
:104D5000FDF7D2F9412223232A2110460094FDF7C2
:104D600053FB23234322194601970095029429E01F
:104D70000C230E222C213A200094FDF7EFFB032395
:104D80000E222C213A200094FDF7E8FB0123022299
:104D90003B213C20FDF7B0F90423062239213E20B7
:104DA0000094FDF7DBFB012302223B214620FDF7A7
:104DB000A3F9412219232A2110460094FDF724FB70
:104DC000172071E13F20FDF7C0FA41E10C230E22CC
:104DD0002C213A200094FDF7C1FB03230E222C2145
:104DE0003A200094FDF7BAFB012302223B213C202C
:104DF000FDF782F90423062239213E200094FDF7B5
:104E0000ADFB012302223B214620FDF775F9142357
:104E10005D222A2141200094FDF7F6FA14234B224B
:104E200019465D200094FDF7EFFA142047214B222C
:104E3000162300910190029412211046C3E70C231F
:104E40000E222C213A200094FDF788FB03230E222A
:104E50002C213A200094FDF781FB012302223B2103
:104E60003C20FDF749F90423062239213E20009415
:104E7000FDF774FB012302223B214620FDF73CF99C
:104E8000142325222A2141200094FDF7BDFA142382
:104E90003722194625200094FDF7B6FA14203B214D
:104EA00037221623009101900294122110468AE7BE
:104EB0000C230E222C213A200094FDF74FFB0323F4
:104EC0000E222C213A200094FDF748FB01230222F8
:104ED0003B213C20FDF710F90423062239213E2016
:104EE0000094FDF73BFB012302223B214620FDF706
:104EF00003F9192332222A21412003E0ABE062E0CA
:104F00003FE00CE00094FDF77FFA2D211320009183
:104F10001623332201901A210294302053E70C23E8
:104F20000E222C213A200094FDF718FB03230E22B9
:104F30002C213A200094FDF711FB012302223B2192
:104F40003C20FDF7D9F80423062239213E200094A5
:104F5000FDF704FB012302223B214620FDF7CCF89C
:104F6000192350222A2141200094FDF74DFA5421A3
:104F70001320009116234E2201901A2102945220F0
:104F800021E70123172220214020FDF7B5F81B213E
:104F900057206D4613C520235A2219465420FDF789
:104FA000D4F93B20402200900C2306210196029464
:104FB0001046FDF7CAF929201C232C221946019717
:104FC0000294009020E00123172220214020FDF7C9
:104FD00093F8202157206D4613C51B235A221946EA
:104FE0005420FDF7B2F940203B2200900C2306210B
:104FF000019602941046FDF7A8F91C2129206D4660
:1050000013C521232C2219462620FDF79EF90C23D7
:105010000E222C213A200094FDF7A0FA03230E2241
:105020002C213A200094FDF799FA012302223B211A
:105030003C20FDF761F80423062239213E2000942C
:10504000FDF78CFA012302223B214620FDF754F89C
:10505000FDF7DCFBFEBD0E230C2224213A20009438
:10506000FDF77CFA0E230322242146200094FDF74D
:1050700075FA0123022226213820FDF73DF801238D
:10508000022230213820FDF737F806230422282198
:1050900036200094FDF762FA41221923242110469C
:1050A0000094FDF7B1F91620192343221946009503
:1050B0000294019086E600006007002010B50020F1
:1050C000FDF782FA14210846FDF78CFA0122034904
:1050D00003A0FDF787FBFDF799FB10BD1C00002026
:1050E000466967687400000010B5002823D0124B91
:1050F0000022001F196803E0814203D80A4649686C
:105100000029F9D1002A0AD01368841A9C4204D1DC
:10511000006818181060104602E0506000E0186047
:10512000002907D002680B1A934203D10B68D218EA
:1051300002604968416010BD640000200EB502465F
:105140008020002A0DD000290BD11178012908D127
:10515000104601A900F021F8042801D0002000E049
:105160001020029A019903B000BD70B50D460400ED
:1051700004D0002A02D12078012801D0802070BDFF
:10518000204600F095FE002805D02946204600F074
:105190002AF8002070BD812070BD10B504468089BA
:1051A00000281FD0608980000019006908606068CD
:1051B000002808D06078022805D10021204600F0A0
:1051C000B7FF00F0A5FF72B6A089401EA08162B6AD
:1051D0006089401C80B26081E189884201D1002051
:1051E0006081042010BD10B500F0A2FF00F090FF18
:1051F00010BD0000F8B5334C0225206D00260128B3
:1052000007D00920E901C006FBF74CFC002846D076
:105210002665606D012807D009208021C006FBF7B4
:1052200041FC00283DD06665264FA06D803F0128D7
:1052300003D0786C012836D0A665E06D012807D030
:1052400009202021C006FBF72DFC00282DD0E665A3
:10525000206E012806D040211B48FBF723FC0028C4
:1052600025D02666606E012803D0386F401C20D000
:105270006666A06E012803D0786F401C1BD0A6661E
:10528000E06E012803D0B86F401C16D0E666206F90
:10529000012803D0F86F401C11D02667F8BD2565A2
:1052A000B7E76565C0E7A565C7E7E565D0E72566AB
:1052B000D8E76566DDE7A566E2E7E566E7E7256727
:1052C000F8BD0000000700200004004886B0FBF78E
:1052D000E9FDFDF7BDFAFCF755FE884800250126DB
:1052E0006A4661C209206946C006FBF73DFB022001
:1052F0006A4661C269468248FBF736FBFCF724FE2A
:10530000804C814FA1688148F96341438048FAF796
:10531000DFFFB107886220687862691E6068FBF76A
:10532000E2F8B862E068F86220693863606978631F
:10533000A069B8633846A18B40304187E18B8187F3
:10534000218CC187618C40300180A18C4180E18C2F
:105350008180218DC180618D0181A18D4181E18D8F
:105360008181218EC181618E0182A18E4182E18E77
:105370008182218FC182618F0183A18F4183E18F5F
:105380008183214640310A88C2834A8802848A8800
:105390004284CA8882840A89C2844A8902858A89A9
:1053A0004285CA8982850A8AC2854A8A02868A8A91
:1053B0004286CA8A82860A8BC2864A8B02878A8B79
:1053C0004287CA8B82870A8CC28702464B8C403246
:1053D0001380636E4364A36E8364C3640B8E138275
:1053E0004B8E53828B8E9382CB8ED382098F118307
:1053F000E16FC165214680310B6803664B684366E7
:10540000088910854889508588899085C889D08504
:10541000088A1086488A5086888A9086092010213A
:10542000C006FBF73FFBFF3F1321813F49017C187A
:1054300000282AD002213248FBF734FB00282AD06A
:105440003D70FCF7F9FCFCF715FDFCF7B7FDFCF728
:10545000D9FD3048FCF71CF900212E48FCF7DEF995
:1054600004212C48FCF7DAF908212A48FCF7D6F980
:105470000C212848FCF7D2F9A57500F005F9387819
:10548000002823D0FCF7A2FC30E0FCF797FDFCF7E6
:10549000F7FD3E70F0E7A675FCF790FDFCF7F0FD18
:1054A000FCF7B0FD1B48FCF7F3F800211948FCF7A6
:1054B000B5F904211748FCF7B1F908211548FCF7A4
:1054C000ADF90C211348FCF7A9F9D6E7A07D002817
:1054D00002D0FCF77BFC07E0FCF778FCFCF752FC01
:1054E000FCF786FCFCF796FCFCF75EFC00F0E0F8AD
:1054F0007D24E400204600F0B9F8FBE710800000AE
:10550000000400486C00002080070020E903000030
:10551000006CDC0250050020F0B50B30C108C9005A
:10552000144F0026144A0FE003688B420BD38B42C2
:1055300005D95C1A4318456830C3083B00E043684E
:10554000136002C004E0021D10680028ECD1304650
:10555000002803D13868002801D00020F0BD064A99
:1055600006481060064A121AD208D20044C0012030
:105570003860D7E768000020640000208C1300200A
:10558000D8140020F8B51E4D0127284600264030CB
:10559000EF6606760920F902C006EE65FBF782FA8F
:1055A000EC1FF93C012807D02046E030407D01285F
:1055B00024D1606E022821D16E652766FFF756FB65
:1055C000A06F401C0ED0E06F401C0BD0206F401C21
:1055D00008D0606F401C05D0206D411C05D0FEF73F
:1055E000B7FF07E0FFF744F804E0E06CFEF7B0FF18
:1055F00000F008F8022000F039F8E1E7F8BD0000FB
:1056000080070020F0B5174A00209066116BD06C1F
:10561000884201DD401ED0641348124B0546FF3519
:105620008135403318246F6BE96D1C577E42AD6B9A
:105630008030491C012C0BD0641C08D1D165476512
:105640008665A94203DD0020D06501201876F0BDF3
:10565000D16587654665A942F9DD0020D065401E09
:10566000F4E70000800700200006002080B5EFF37B
:105670000581002901D0822080BD024FBC4600DF99
:1056800080BD0000A167000880B5EFF30580002809
:1056900001D0822080BDEFF31480C00703D0034FF8
:1056A000BC4600DF80BD01F085F880BDB56700080D
:1056B00080B588B0EFF30580002802D0822008B0C2
:1056C00080BDEFF3148081071248890F06D00129AD
:1056D0001AD0022910D0032918D112E008A981F3A9
:1056E00009880078C0070AD0022080F31488BFF32D
:1056F0004F8FBFF36F8F09E00078C00706D10320FA
:10570000F3E70078C00701D0FF20D8E7024FBC467E
:1057100000DFD4E7907500082D68000880B5EFF32E
:105720000582002A02D0FFF709FD80BD014FBC466B
:1057300000DF80BDA368000880B5EFF30582002A72
:1057400001D0002080BDEFF31482D20703D1054AB7
:105750005278002A03D0044FBC4600DF80BD01F020
:10576000BFF880BD40000020E1680008034FBC4640
:1057700000DF034FBC4600DFFEE70000556900086C
:105780007169000880B5EFF30581002901D08220FE
:1057900080BD024FBC4600DF80BD0000716900087B
:1057A00080B5024FBC4600DF80BD0000AD69000837
:1057B0000025094CED4329462068FFF7AFFF02465C
:1057C0000846102AF7D1FFF7EBFF0028F3D0024676
:1057D00008469047EFE700003C000020FEE7FEE7A8
:1057E0000748016807484161002181610721016183
:1057F0000548016AFF2212061143016240177047F3
:105800008C75000800E000E000ED00E0704700004B
:1058100008B50020FCF7D8FE0020009014232322B6
:1058200028213220FCF76AFD14210846FCF7DAFE35
:105830000122084908A0FCF7D5FF32210120FCF71E
:10584000D1FE0122034906A0FCF7CCFFFCF7DEFFE6
:1058500008BD00001C00002052656D6F74650000DB
:1058600050726573732072656D6F74652073746117
:105870007274000010B50020FCF7A6FE1421084643
:10588000FCF7B0FE0122084908A0FCF7ABFF32216B
:105890000520FCF7A7FE0122034906A0FCF7A2FFA2
:1058A000FCF7B4FF10BD00001C00002054696D65BA
:1058B000000000005072657373206F6B20746F20BE
:1058C000737461727400000010B50020FCF77CFE58
:1058D00014213220FCF786FE154CA07D012804D14E
:1058E0000122144914A0FCF77DFFA07D022804D1F9
:1058F0000122104911A0FCF775FFA07D032804D1F7
:1059000001220C490EA0FCF76DFFA07D042804D1F4
:10591000012208490BA0FCF765FFA07D052804D1F2
:105920000122044908A0FCF75DFFFCF76FFF10BDE2
:10593000600700201C000020310000003200000041
:10594000330000003400000035000000F8B50120ED
:10595000FCF73AFE1E212820FCF744FE01221F49D5
:105960001FA0FCF73FFF214DA88A002802D0012884
:1059700008D010E032212820FCF734FE012217491C
:105980001BA006E032212820FCF72CFE012213493F
:1059900019A0FCF727FFFCF739FF01210920C903F3
:1059A000C006FBF77FF801260027154C00280BD016
:1059B000E76302211348FBF775F8002806D06764F7
:1059C000E06B012804D004E0E663F2E76664F7E7E1
:1059D000AE82606C012800D1AF82F8BD1C000020AF
:1059E000415050204D4F444500000000EC00002085
:1059F00050756C6C205550004E6F2050554C4C002B
:105A0000000700200004004810B50120FCF7DCFD71
:105A10001E212820FCF7E6FD01220A490AA0FCF716
:105A2000E1FE32212820FCF7DDFD0122054908A016
:105A3000FCF7D8FEFCF7EAFEFF20F530FFF716FE74
:105A400010BD00001C0000205243204D4F44450073
:105A5000426C7565746F6F746800000038B5C820BB
:105A6000FFF704FEFCF7C4FD0120FCF7ADFD0121AA
:105A70002D20FCF7B7FD0022204921A0FCF7B2FE43
:105A800014213520FCF7AEFD00221C491EA0FCF7B6
:105A9000A9FE002514232322282132200095FCF79B
:105AA0002DFC40231D22002101200095FCF726FC3F
:105AB00040231E2200216B200095FCF71FFC55247B
:105AC000A2B23C23282155200095FCF79DFC641CC4
:105AD000692CF5DD00230B2232212B20FCF70CFB77
